{
    "contractName": "Ayewa",
    "abi": [
        {
            "inputs": [],
            "stateMutability": "nonpayable",
            "type": "constructor"
        },
        {
            "anonymous": false,
            "inputs": [
                {
                    "indexed": true,
                    "internalType": "address",
                    "name": "owner",
                    "type": "address"
                },
                {
                    "indexed": true,
                    "internalType": "address",
                    "name": "spender",
                    "type": "address"
                },
                {
                    "indexed": false,
                    "internalType": "uint256",
                    "name": "value",
                    "type": "uint256"
                }
            ],
            "name": "Approval",
            "type": "event"
        },
        {
            "anonymous": false,
            "inputs": [
                {
                    "indexed": true,
                    "internalType": "address",
                    "name": "previousOwner",
                    "type": "address"
                },
                {
                    "indexed": true,
                    "internalType": "address",
                    "name": "newOwner",
                    "type": "address"
                }
            ],
            "name": "OwnershipTransferred",
            "type": "event"
        },
        {
            "anonymous": false,
            "inputs": [
                {
                    "indexed": true,
                    "internalType": "address",
                    "name": "from",
                    "type": "address"
                },
                {
                    "indexed": true,
                    "internalType": "address",
                    "name": "to",
                    "type": "address"
                },
                {
                    "indexed": false,
                    "internalType": "uint256",
                    "name": "value",
                    "type": "uint256"
                }
            ],
            "name": "Transfer",
            "type": "event"
        },
        {
            "inputs": [
                {
                    "internalType": "address",
                    "name": "owner",
                    "type": "address"
                },
                {
                    "internalType": "address",
                    "name": "spender",
                    "type": "address"
                }
            ],
            "name": "allowance",
            "outputs": [
                {
                    "internalType": "uint256",
                    "name": "",
                    "type": "uint256"
                }
            ],
            "stateMutability": "view",
            "type": "function",
            "constant": true
        },
        {
            "inputs": [
                {
                    "internalType": "address",
                    "name": "spender",
                    "type": "address"
                },
                {
                    "internalType": "uint256",
                    "name": "amount",
                    "type": "uint256"
                }
            ],
            "name": "approve",
            "outputs": [
                {
                    "internalType": "bool",
                    "name": "",
                    "type": "bool"
                }
            ],
            "stateMutability": "nonpayable",
            "type": "function"
        },
        {
            "inputs": [
                {
                    "internalType": "address",
                    "name": "account",
                    "type": "address"
                }
            ],
            "name": "balanceOf",
            "outputs": [
                {
                    "internalType": "uint256",
                    "name": "",
                    "type": "uint256"
                }
            ],
            "stateMutability": "view",
            "type": "function",
            "constant": true
        },
        {
            "inputs": [],
            "name": "decimals",
            "outputs": [
                {
                    "internalType": "uint8",
                    "name": "",
                    "type": "uint8"
                }
            ],
            "stateMutability": "view",
            "type": "function",
            "constant": true
        },
        {
            "inputs": [
                {
                    "internalType": "address",
                    "name": "spender",
                    "type": "address"
                },
                {
                    "internalType": "uint256",
                    "name": "subtractedValue",
                    "type": "uint256"
                }
            ],
            "name": "decreaseAllowance",
            "outputs": [
                {
                    "internalType": "bool",
                    "name": "",
                    "type": "bool"
                }
            ],
            "stateMutability": "nonpayable",
            "type": "function"
        },
        {
            "inputs": [
                {
                    "internalType": "address",
                    "name": "spender",
                    "type": "address"
                },
                {
                    "internalType": "uint256",
                    "name": "addedValue",
                    "type": "uint256"
                }
            ],
            "name": "increaseAllowance",
            "outputs": [
                {
                    "internalType": "bool",
                    "name": "",
                    "type": "bool"
                }
            ],
            "stateMutability": "nonpayable",
            "type": "function"
        },
        {
            "inputs": [],
            "name": "name",
            "outputs": [
                {
                    "internalType": "string",
                    "name": "",
                    "type": "string"
                }
            ],
            "stateMutability": "view",
            "type": "function",
            "constant": true
        },
        {
            "inputs": [],
            "name": "owner",
            "outputs": [
                {
                    "internalType": "address",
                    "name": "",
                    "type": "address"
                }
            ],
            "stateMutability": "view",
            "type": "function",
            "constant": true
        },
        {
            "inputs": [],
            "name": "renounceOwnership",
            "outputs": [],
            "stateMutability": "nonpayable",
            "type": "function"
        },
        {
            "inputs": [],
            "name": "symbol",
            "outputs": [
                {
                    "internalType": "string",
                    "name": "",
                    "type": "string"
                }
            ],
            "stateMutability": "view",
            "type": "function",
            "constant": true
        },
        {
            "inputs": [],
            "name": "totalSupply",
            "outputs": [
                {
                    "internalType": "uint256",
                    "name": "",
                    "type": "uint256"
                }
            ],
            "stateMutability": "view",
            "type": "function",
            "constant": true
        },
        {
            "inputs": [
                {
                    "internalType": "address",
                    "name": "to",
                    "type": "address"
                },
                {
                    "internalType": "uint256",
                    "name": "amount",
                    "type": "uint256"
                }
            ],
            "name": "transfer",
            "outputs": [
                {
                    "internalType": "bool",
                    "name": "",
                    "type": "bool"
                }
            ],
            "stateMutability": "nonpayable",
            "type": "function"
        },
        {
            "inputs": [
                {
                    "internalType": "address",
                    "name": "from",
                    "type": "address"
                },
                {
                    "internalType": "address",
                    "name": "to",
                    "type": "address"
                },
                {
                    "internalType": "uint256",
                    "name": "amount",
                    "type": "uint256"
                }
            ],
            "name": "transferFrom",
            "outputs": [
                {
                    "internalType": "bool",
                    "name": "",
                    "type": "bool"
                }
            ],
            "stateMutability": "nonpayable",
            "type": "function"
        },
        {
            "inputs": [
                {
                    "internalType": "address",
                    "name": "newOwner",
                    "type": "address"
                }
            ],
            "name": "transferOwnership",
            "outputs": [],
            "stateMutability": "nonpayable",
            "type": "function"
        },
        {
            "inputs": [],
            "name": "getCurrentPrice",
            "outputs": [
                {
                    "internalType": "uint256",
                    "name": "",
                    "type": "uint256"
                }
            ],
            "stateMutability": "view",
            "type": "function",
            "constant": true
        },
        {
            "inputs": [
                {
                    "internalType": "address",
                    "name": "to",
                    "type": "address"
                },
                {
                    "internalType": "uint256",
                    "name": "amount",
                    "type": "uint256"
                }
            ],
            "name": "mint",
            "outputs": [],
            "stateMutability": "payable",
            "type": "function",
            "payable": true
        }
    ],
    "bytecode": "0x6080604052655af3107a40006006553480156200001b57600080fd5b506040518060400160405280600a81526020017f54657374204179657761000000000000000000000000000000000000000000008152506040518060400160405280600481526020017f54415957000000000000000000000000000000000000000000000000000000008152508160039080519060200190620000a0929190620001b0565b508060049080519060200190620000b9929190620001b0565b505050620000dc620000d0620000e260201b60201c565b620000ea60201b60201c565b620002c5565b600033905090565b6000600560009054906101000a900473ffffffffffffffffffffffffffffffffffffffff16905081600560006101000a81548173ffffffffffffffffffffffffffffffffffffffff021916908373ffffffffffffffffffffffffffffffffffffffff1602179055508173ffffffffffffffffffffffffffffffffffffffff168173ffffffffffffffffffffffffffffffffffffffff167f8be0079c531659141344cd1fd0a4f28419497f9722a3daafe3b4186f6b6457e060405160405180910390a35050565b828054620001be9062000260565b90600052602060002090601f016020900481019282620001e257600085556200022e565b82601f10620001fd57805160ff19168380011785556200022e565b828001600101855582156200022e579182015b828111156200022d57825182559160200191906001019062000210565b5b5090506200023d919062000241565b5090565b5b808211156200025c57600081600090555060010162000242565b5090565b600060028204905060018216806200027957607f821691505b6020821081141562000290576200028f62000296565b5b50919050565b7f4e487b7100000000000000000000000000000000000000000000000000000000600052602260045260246000fd5b611a1a80620002d56000396000f3fe6080604052600436106100f35760003560e01c8063715018a61161008a578063a9059cbb11610059578063a9059cbb14610333578063dd62ed3e14610370578063eb91d37e146103ad578063f2fde38b146103d8576100f3565b8063715018a6146102895780638da5cb5b146102a057806395d89b41146102cb578063a457c2d7146102f6576100f3565b8063313ce567116100c6578063313ce567146101c857806339509351146101f357806340c10f191461023057806370a082311461024c576100f3565b806306fdde03146100f8578063095ea7b31461012357806318160ddd1461016057806323b872dd1461018b575b600080fd5b34801561010457600080fd5b5061010d610401565b60405161011a9190611337565b60405180910390f35b34801561012f57600080fd5b5061014a600480360381019061014591906110cb565b610493565b604051610157919061131c565b60405180910390f35b34801561016c57600080fd5b506101756104b6565b60405161018291906114b9565b60405180910390f35b34801561019757600080fd5b506101b260048036038101906101ad9190611078565b6104c0565b6040516101bf919061131c565b60405180910390f35b3480156101d457600080fd5b506101dd6104ef565b6040516101ea91906114d4565b60405180910390f35b3480156101ff57600080fd5b5061021a600480360381019061021591906110cb565b6104f8565b604051610227919061131c565b60405180910390f35b61024a600480360381019061024591906110cb565b61052f565b005b34801561025857600080fd5b50610273600480360381019061026e919061100b565b61058c565b60405161028091906114b9565b60405180910390f35b34801561029557600080fd5b5061029e6105d4565b005b3480156102ac57600080fd5b506102b56105e8565b6040516102c29190611301565b60405180910390f35b3480156102d757600080fd5b506102e0610612565b6040516102ed9190611337565b60405180910390f35b34801561030257600080fd5b5061031d600480360381019061031891906110cb565b6106a4565b60405161032a919061131c565b60405180910390f35b34801561033f57600080fd5b5061035a600480360381019061035591906110cb565b61071b565b604051610367919061131c565b60405180910390f35b34801561037c57600080fd5b5061039760048036038101906103929190611038565b61073e565b6040516103a491906114b9565b60405180910390f35b3480156103b957600080fd5b506103c26107c5565b6040516103cf91906114b9565b60405180910390f35b3480156103e457600080fd5b506103ff60048036038101906103fa919061100b565b6107cf565b005b60606003805461041090611643565b80601f016020809104026020016040519081016040528092919081815260200182805461043c90611643565b80156104895780601f1061045e57610100808354040283529160200191610489565b820191906000526020600020905b81548152906001019060200180831161046c57829003601f168201915b5050505050905090565b60008061049e610853565b90506104ab81858561085b565b600191505092915050565b6000600254905090565b6000806104cb610853565b90506104d8858285610a26565b6104e3858585610ab2565b60019150509392505050565b60006012905090565b600080610503610853565b9050610524818585610515858961073e565b61051f919061150b565b61085b565b600191505092915050565b8060065461053d9190611561565b341461057e576040517f08c379a000000000000000000000000000000000000000000000000000000000815260040161057590611459565b60405180910390fd5b6105888282610d33565b5050565b60008060008373ffffffffffffffffffffffffffffffffffffffff1673ffffffffffffffffffffffffffffffffffffffff168152602001908152602001600020549050919050565b6105dc610e93565b6105e66000610f11565b565b6000600560009054906101000a900473ffffffffffffffffffffffffffffffffffffffff16905090565b60606004805461062190611643565b80601f016020809104026020016040519081016040528092919081815260200182805461064d90611643565b801561069a5780601f1061066f5761010080835404028352916020019161069a565b820191906000526020600020905b81548152906001019060200180831161067d57829003601f168201915b5050505050905090565b6000806106af610853565b905060006106bd828661073e565b905083811015610702576040517f08c379a00000000000000000000000000000000000000000000000000000000081526004016106f990611479565b60405180910390fd5b61070f828686840361085b565b60019250505092915050565b600080610726610853565b9050610733818585610ab2565b600191505092915050565b6000600160008473ffffffffffffffffffffffffffffffffffffffff1673ffffffffffffffffffffffffffffffffffffffff16815260200190815260200160002060008373ffffffffffffffffffffffffffffffffffffffff1673ffffffffffffffffffffffffffffffffffffffff16815260200190815260200160002054905092915050565b6000600654905090565b6107d7610e93565b600073ffffffffffffffffffffffffffffffffffffffff168173ffffffffffffffffffffffffffffffffffffffff161415610847576040517f08c379a000000000000000000000000000000000000000000000000000000000815260040161083e90611379565b60405180910390fd5b61085081610f11565b50565b600033905090565b600073ffffffffffffffffffffffffffffffffffffffff168373ffffffffffffffffffffffffffffffffffffffff1614156108cb576040517f08c379a00000000000000000000000000000000000000000000000000000000081526004016108c290611439565b60405180910390fd5b600073ffffffffffffffffffffffffffffffffffffffff168273ffffffffffffffffffffffffffffffffffffffff16141561093b576040517f08c379a000000000000000000000000000000000000000000000000000000000815260040161093290611399565b60405180910390fd5b80600160008573ffffffffffffffffffffffffffffffffffffffff1673ffffffffffffffffffffffffffffffffffffffff16815260200190815260200160002060008473ffffffffffffffffffffffffffffffffffffffff1673ffffffffffffffffffffffffffffffffffffffff168152602001908152602001600020819055508173ffffffffffffffffffffffffffffffffffffffff168373ffffffffffffffffffffffffffffffffffffffff167f8c5be1e5ebec7d5bd14f71427d1e84f3dd0314c0f7b2291e5b200ac8c7c3b92583604051610a1991906114b9565b60405180910390a3505050565b6000610a32848461073e565b90507fffffffffffffffffffffffffffffffffffffffffffffffffffffffffffffffff8114610aac5781811015610a9e576040517f08c379a0000000000000000000000000000000000000000000000000000000008152600401610a95906113b9565b60405180910390fd5b610aab848484840361085b565b5b50505050565b600073ffffffffffffffffffffffffffffffffffffffff168373ffffffffffffffffffffffffffffffffffffffff161415610b22576040517f08c379a0000000000000000000000000000000000000000000000000000000008152600401610b1990611419565b60405180910390fd5b600073ffffffffffffffffffffffffffffffffffffffff168273ffffffffffffffffffffffffffffffffffffffff161415610b92576040517f08c379a0000000000000000000000000000000000000000000000000000000008152600401610b8990611359565b60405180910390fd5b610b9d838383610fd7565b60008060008573ffffffffffffffffffffffffffffffffffffffff1673ffffffffffffffffffffffffffffffffffffffff16815260200190815260200160002054905081811015610c23576040517f08c379a0000000000000000000000000000000000000000000000000000000008152600401610c1a906113d9565b60405180910390fd5b8181036000808673ffffffffffffffffffffffffffffffffffffffff1673ffffffffffffffffffffffffffffffffffffffff16815260200190815260200160002081905550816000808573ffffffffffffffffffffffffffffffffffffffff1673ffffffffffffffffffffffffffffffffffffffff1681526020019081526020016000206000828254610cb6919061150b565b925050819055508273ffffffffffffffffffffffffffffffffffffffff168473ffffffffffffffffffffffffffffffffffffffff167fddf252ad1be2c89b69c2b068fc378daa952ba7f163c4a11628f55a4df523b3ef84604051610d1a91906114b9565b60405180910390a3610d2d848484610fdc565b50505050565b600073ffffffffffffffffffffffffffffffffffffffff168273ffffffffffffffffffffffffffffffffffffffff161415610da3576040517f08c379a0000000000000000000000000000000000000000000000000000000008152600401610d9a90611499565b60405180910390fd5b610daf60008383610fd7565b8060026000828254610dc1919061150b565b92505081905550806000808473ffffffffffffffffffffffffffffffffffffffff1673ffffffffffffffffffffffffffffffffffffffff1681526020019081526020016000206000828254610e16919061150b565b925050819055508173ffffffffffffffffffffffffffffffffffffffff16600073ffffffffffffffffffffffffffffffffffffffff167fddf252ad1be2c89b69c2b068fc378daa952ba7f163c4a11628f55a4df523b3ef83604051610e7b91906114b9565b60405180910390a3610e8f60008383610fdc565b5050565b610e9b610853565b73ffffffffffffffffffffffffffffffffffffffff16610eb96105e8565b73ffffffffffffffffffffffffffffffffffffffff1614610f0f576040517f08c379a0000000000000000000000000000000000000000000000000000000008152600401610f06906113f9565b60405180910390fd5b565b6000600560009054906101000a900473ffffffffffffffffffffffffffffffffffffffff16905081600560006101000a81548173ffffffffffffffffffffffffffffffffffffffff021916908373ffffffffffffffffffffffffffffffffffffffff1602179055508173ffffffffffffffffffffffffffffffffffffffff168173ffffffffffffffffffffffffffffffffffffffff167f8be0079c531659141344cd1fd0a4f28419497f9722a3daafe3b4186f6b6457e060405160405180910390a35050565b505050565b505050565b600081359050610ff0816119b6565b92915050565b600081359050611005816119cd565b92915050565b600060208284031215611021576110206116d3565b5b600061102f84828501610fe1565b91505092915050565b6000806040838503121561104f5761104e6116d3565b5b600061105d85828601610fe1565b925050602061106e85828601610fe1565b9150509250929050565b600080600060608486031215611091576110906116d3565b5b600061109f86828701610fe1565b93505060206110b086828701610fe1565b92505060406110c186828701610ff6565b9150509250925092565b600080604083850312156110e2576110e16116d3565b5b60006110f085828601610fe1565b925050602061110185828601610ff6565b9150509250929050565b611114816115bb565b82525050565b611123816115cd565b82525050565b6000611134826114ef565b61113e81856114fa565b935061114e818560208601611610565b611157816116d8565b840191505092915050565b600061116f6023836114fa565b915061117a826116e9565b604082019050919050565b60006111926026836114fa565b915061119d82611738565b604082019050919050565b60006111b56022836114fa565b91506111c082611787565b604082019050919050565b60006111d8601d836114fa565b91506111e3826117d6565b602082019050919050565b60006111fb6026836114fa565b9150611206826117ff565b604082019050919050565b600061121e6020836114fa565b91506112298261184e565b602082019050919050565b60006112416025836114fa565b915061124c82611877565b604082019050919050565b60006112646024836114fa565b915061126f826118c6565b604082019050919050565b60006112876012836114fa565b915061129282611915565b602082019050919050565b60006112aa6025836114fa565b91506112b58261193e565b604082019050919050565b60006112cd601f836114fa565b91506112d88261198d565b602082019050919050565b6112ec816115f9565b82525050565b6112fb81611603565b82525050565b6000602082019050611316600083018461110b565b92915050565b6000602082019050611331600083018461111a565b92915050565b600060208201905081810360008301526113518184611129565b905092915050565b6000602082019050818103600083015261137281611162565b9050919050565b6000602082019050818103600083015261139281611185565b9050919050565b600060208201905081810360008301526113b2816111a8565b9050919050565b600060208201905081810360008301526113d2816111cb565b9050919050565b600060208201905081810360008301526113f2816111ee565b9050919050565b6000602082019050818103600083015261141281611211565b9050919050565b6000602082019050818103600083015261143281611234565b9050919050565b6000602082019050818103600083015261145281611257565b9050919050565b600060208201905081810360008301526114728161127a565b9050919050565b600060208201905081810360008301526114928161129d565b9050919050565b600060208201905081810360008301526114b2816112c0565b9050919050565b60006020820190506114ce60008301846112e3565b92915050565b60006020820190506114e960008301846112f2565b92915050565b600081519050919050565b600082825260208201905092915050565b6000611516826115f9565b9150611521836115f9565b9250827fffffffffffffffffffffffffffffffffffffffffffffffffffffffffffffffff0382111561155657611555611675565b5b828201905092915050565b600061156c826115f9565b9150611577836115f9565b9250817fffffffffffffffffffffffffffffffffffffffffffffffffffffffffffffffff04831182151516156115b0576115af611675565b5b828202905092915050565b60006115c6826115d9565b9050919050565b60008115159050919050565b600073ffffffffffffffffffffffffffffffffffffffff82169050919050565b6000819050919050565b600060ff82169050919050565b60005b8381101561162e578082015181840152602081019050611613565b8381111561163d576000848401525b50505050565b6000600282049050600182168061165b57607f821691505b6020821081141561166f5761166e6116a4565b5b50919050565b7f4e487b7100000000000000000000000000000000000000000000000000000000600052601160045260246000fd5b7f4e487b7100000000000000000000000000000000000000000000000000000000600052602260045260246000fd5b600080fd5b6000601f19601f8301169050919050565b7f45524332303a207472616e7366657220746f20746865207a65726f206164647260008201527f6573730000000000000000000000000000000000000000000000000000000000602082015250565b7f4f776e61626c653a206e6577206f776e657220697320746865207a65726f206160008201527f6464726573730000000000000000000000000000000000000000000000000000602082015250565b7f45524332303a20617070726f766520746f20746865207a65726f20616464726560008201527f7373000000000000000000000000000000000000000000000000000000000000602082015250565b7f45524332303a20696e73756666696369656e7420616c6c6f77616e6365000000600082015250565b7f45524332303a207472616e7366657220616d6f756e742065786365656473206260008201527f616c616e63650000000000000000000000000000000000000000000000000000602082015250565b7f4f776e61626c653a2063616c6c6572206973206e6f7420746865206f776e6572600082015250565b7f45524332303a207472616e736665722066726f6d20746865207a65726f20616460008201527f6472657373000000000000000000000000000000000000000000000000000000602082015250565b7f45524332303a20617070726f76652066726f6d20746865207a65726f2061646460008201527f7265737300000000000000000000000000000000000000000000000000000000602082015250565b7f4e6f7420412076616c696420616d6f756e740000000000000000000000000000600082015250565b7f45524332303a2064656372656173656420616c6c6f77616e63652062656c6f7760008201527f207a65726f000000000000000000000000000000000000000000000000000000602082015250565b7f45524332303a206d696e7420746f20746865207a65726f206164647265737300600082015250565b6119bf816115bb565b81146119ca57600080fd5b50565b6119d6816115f9565b81146119e157600080fd5b5056fea26469706673582212200c6c092878bb34709a87a200f6d1f675ab0050e89ebdb78bf43eae344e1fdd6564736f6c63430008070033",
    "immutableReferences": {},
    "source": "// SPDX-License-Identifier: MIT\npragma solidity ^0.8.4;\n\nimport \"@openzeppelin/contracts/token/ERC20/ERC20.sol\";\nimport \"@openzeppelin/contracts/access/Ownable.sol\";\n\ncontract Ayewa is ERC20, Ownable {\n    uint256 price = 0.0001 ether ;\n    constructor() ERC20(\"Test Ayewa\", \"TAYW\") {\n        // _mint(msg.sender, 1000000000000000000000000);\n    }\n    function getCurrentPrice() public view returns(uint256){\n        return price;\n    }\n    function mint(address to, uint256 amount) external payable {\n      require(msg.value == price * amount ,\"Not A valid amount\");\n      \n        _mint(to, amount);\n    }\n\n\n\n}\n",
    "sourcePath": "/home/dev-lap-2/Desktop/WORK/Contracts/Ayewa/contracts/AyewaToken.sol",
    "compiler": {
        "name": "solc",
        "version": "0.8.7+commit.e28d00a7.Emscripten.clang"
    },
    "schemaVersion": "3.4.7",
    "updatedAt": "2022-07-09T12:56:41.323Z",
    "networkType": "ethereum",
    "devdoc": {
        "kind": "dev",
        "methods": {
            "allowance(address,address)": {
                "details": "See {IERC20-allowance}."
            },
            "approve(address,uint256)": {
                "details": "See {IERC20-approve}. NOTE: If `amount` is the maximum `uint256`, the allowance is not updated on `transferFrom`. This is semantically equivalent to an infinite approval. Requirements: - `spender` cannot be the zero address."
            },
            "balanceOf(address)": {
                "details": "See {IERC20-balanceOf}."
            },
            "decimals()": {
                "details": "Returns the number of decimals used to get its user representation. For example, if `decimals` equals `2`, a balance of `505` tokens should be displayed to a user as `5.05` (`505 / 10 ** 2`). Tokens usually opt for a value of 18, imitating the relationship between Ether and Wei. This is the value {ERC20} uses, unless this function is overridden; NOTE: This information is only used for _display_ purposes: it in no way affects any of the arithmetic of the contract, including {IERC20-balanceOf} and {IERC20-transfer}."
            },
            "decreaseAllowance(address,uint256)": {
                "details": "Atomically decreases the allowance granted to `spender` by the caller. This is an alternative to {approve} that can be used as a mitigation for problems described in {IERC20-approve}. Emits an {Approval} event indicating the updated allowance. Requirements: - `spender` cannot be the zero address. - `spender` must have allowance for the caller of at least `subtractedValue`."
            },
            "increaseAllowance(address,uint256)": {
                "details": "Atomically increases the allowance granted to `spender` by the caller. This is an alternative to {approve} that can be used as a mitigation for problems described in {IERC20-approve}. Emits an {Approval} event indicating the updated allowance. Requirements: - `spender` cannot be the zero address."
            },
            "name()": {
                "details": "Returns the name of the token."
            },
            "owner()": {
                "details": "Returns the address of the current owner."
            },
            "renounceOwnership()": {
                "details": "Leaves the contract without owner. It will not be possible to call `onlyOwner` functions anymore. Can only be called by the current owner. NOTE: Renouncing ownership will leave the contract without an owner, thereby removing any functionality that is only available to the owner."
            },
            "symbol()": {
                "details": "Returns the symbol of the token, usually a shorter version of the name."
            },
            "totalSupply()": {
                "details": "See {IERC20-totalSupply}."
            },
            "transfer(address,uint256)": {
                "details": "See {IERC20-transfer}. Requirements: - `to` cannot be the zero address. - the caller must have a balance of at least `amount`."
            },
            "transferFrom(address,address,uint256)": {
                "details": "See {IERC20-transferFrom}. Emits an {Approval} event indicating the updated allowance. This is not required by the EIP. See the note at the beginning of {ERC20}. NOTE: Does not update the allowance if the current allowance is the maximum `uint256`. Requirements: - `from` and `to` cannot be the zero address. - `from` must have a balance of at least `amount`. - the caller must have allowance for ``from``'s tokens of at least `amount`."
            },
            "transferOwnership(address)": {
                "details": "Transfers ownership of the contract to a new account (`newOwner`). Can only be called by the current owner."
            }
        },
        "version": 1
    },
    "userdoc": {
        "kind": "user",
        "methods": {},
        "version": 1
    }
}